:020000040000FA
:20000000020759C2AFF508810FFFFFC2AFF5088121FFFFC2AFF5088133FFFFC2AFF5088165
:2000200045FFFFC2AFF5088157FFFFC2AFF5088169FFFFC2AFF508817BFFFFC2AFF508818C
:200040008DFFFFC2AFF508819FFFFFC2AFF50881B1FFFFC2AFF50881C3FFFFC2AFF508814C
:20006000D5FFFFC2AFF50881E7FFFFC2AFF50881F9FFFFC2AFF508A10BFFFFC2AFF508A1CC
:200080001DFFFFC2AFF508A12FFFFFC2AFF508A141758701002274FC12071F750A04750BEF
:2000A00000780A120748740212078E7A007B0079081205577402120704851D82851E83E09F
:2000C000F47003A3E0F470030201FB851D82851E83E0F8A3E0F9E84970030201FB74021209
:2000E0000784E0687003A3E0697010750901024030C2AF75C9AB75C95B80FE53BEFBE59D5E
:20010000A2E650FAE5C654804449F5C6E59E547F644970F853C67FE59EA2E740FA53C68064
:20012000E59E547F70FA43BE049062707408F0750A00F50B780A1207487C807D017A007B5B
:200140000079081205577402120704900186E0F50AA3E0F50B7409780A120768E50A240809
:20016000FF53B4F375BC0075BC007CFC7D077A047B0079081203807E09EFC3940A401C8066
:200180000774086E70027E567C007D087A007B00EEF91203800EEEC39F40E6A8BD851D82A9
:2001A000851E83E8F9E5BCF8E0687003A3E069704A851D82851E83E0F8A3E0F97402120711
:2001C00084E8F0A3E9F0851D82851E8374FFF0A3F07409F5D575D480750A01780A12074894
:2001E000740212078E7A007B101205DD7402120704C2AF75C9AB75C95B80FE750A04780AE0
:20020000120748740212078E7A007B0079011205577402120704851D82851E83E0F470035F
:20022000A3E0F47003020370851D82851E83E0F8A3E0F9E84970030203707402120784E0B5
:20024000F8A3E0F9851D82851E83E0687003A3E0697010750900020830C2AF75C9AB75C969
:200260005B80FE74FF68700374FF69600302037053BEFBE59DA2E650FAE5C654804449F542
:20028000C6E59E547F644970F853C67FE59EA2E740FA53C680E59E547F70FA43BE049062FF
:2002A000707408F0750A00F50B780A1207487C807D017A007B007901120557740212070416
:2002C000900186E0F50AA3E0F50B7409780A120768E50A244FFF53B4F375BC0075BC007CEC
:2002E000FC7D077A047B0079011203807E02EFC39403401C800774086E70027E567C007DA1
:20030000087A007B00EEF91203800EEEC39F40E6A8BD851D82851E83E8F9E5BCF8E06870FF
:2003200003A3E069704A851D82851E83E0F8A3E0F97402120784E8F0A3E9F0851D82851E48
:200340008374FFF0A3F07409F5D575D480750A01780A120748740212078E7A007B02120586
:20036000DD7402120704C2AF75C9AB75C95B80FE43BE03120091C2AF75C9AB75C95B80FE84
:2003800074F7120643E9FEAFC7740F5EF50A750B00740B780A120735EA2400F8EB350BF961
:2003A000E82400E93480F9A2AFE433F50AC2AFEEC4540FFAE5C754F84AF5C7E9900980F0C4
:2003C000E8A3F0A37470F0A374BDF0EC900985F0EDFC900984E054E04CF09009867420F074
:2003E000A37442F07409F5D575D48075D601000000000000000000000075D701E5D7A2E0CD
:2004000040FA8FC7E50AA2E092AF7F020206A9E5096007E508D2AF024033E508D2AF0208B8
:2004200033E5096007E508D2AF02403BE508D2AF02083BE5096007E508D2AF024043E50861
:20044000D2AF020843E5096007E508D2AF02404BE508D2AF02084BE5096007E508D2AF02F6
:200460004053E508D2AF020853E5096007E508D2AF02405BE508D2AF02085BE5096007E5B1
:2004800008D2AF024063E508D2AF020863E5096007E508D2AF02406BE508D2AF02086BE51B
:2004A000096007E508D2AF024073E508D2AF020873E5096007E508D2AF02407BE508D2AFD0
:2004C00002087BE5096007E508D2AF024083E508D2AF020883E5096007E508D2AF02408B84
:2004E000E508D2AF02088BE5096007E508D2AF024093E508D2AF020893E5096007E508D242
:20050000AF02409BE508D2AF02089BE5096007E508D2AF0240A3E508D2AF0208A3E509602B
:2005200007E508D2AF0240ABE508D2AF0208ABE5096007E508D2AF0240B3E508D2AF020806
:20054000B3E5096007E508D2AF0240BBE508D2AF0208BB0002055374F6120643890C740FBE
:20056000550CF50A750B00740B780A120735EA2400F8EB3480F9E82400E9350BF985C70B29
:20058000A2AFE433F50AC2AFE50CC4540FFAE5C754F84AF5C7740A120784E0FEA3E0FFEE0A
:2005A0004F602CEEFAEFFB88828983E08C828D83F088828983A3A882A9838C828D83A3AC0E
:2005C00082AD83EA24FF1AEB34FFFBEA4B70D8850BC7E50AA2E092AF7F030206A974F712F3
:2005E0000643ED900980F0ECA3F0A37462F0A37473F0A3E0541FF07409120784E0F50AA3D8
:20060000E0F50BE50A333354FC900985F07406780A120768E50A900984F09009867412F039
:20062000A37442F053D1FE75D601EA906271F0EBA3F0906270E0D2E1F0E0A2E740FB7F023E
:200640000206A9251DC582C0E0E51E34FFC583C0E0E51DC3958224F910AF0885831E8582B5
:200660001D800885831E85821DD2AFCEF0A3E520F0A3780AE608F0A3DEFAEFF0A3E581242A
:20068000FBF8E608F0A3E608F0A30808E608F0A3E608F0A315811581D0E0FED0E0F815813B
:2006A0001581E8C0E0EEC0E022851E83851D82E0A3FEE0A3F520780AE0A3F608DFFAE0A3AA
:2006C000FFE0A3C0E0E0A3C0E0E0A3C0E0E0A3C0E010AF0885821D85831E800885821D854D
:2006E000831ED2AFD083D08222251DF58210AF08F51D400C151E8008F51D4002151ED2AF70
:20070000851E832200C0D0251D10AF08F51D500C051E8008F51D5002051ED2AFD0D02225F0
:200720001D10AF08F51D400C151E8008F51D4002151ED2AF22700422600D18C6C333C608ED
:20074000C633C6D5E0F4182274028000C0E0F4041206E9D0E01207772275D00075813F7517
:200760001D80751E01020796600C08C6C313C618C613C6D5E0F422CAC0E0E6F0A308DAFA92
:20078000D0E0FA22251DF582E4351EF58322251DFCE4351EFD2212009612079C0000008092
:2007A000FBFFFFFFFFFFFFFFFFFFFFFFFFFFFFFFFFFFFFFFFFFFFFFFFFFFFFFFFFFFFFFF5D
:2007C000FFFFFFFFFFFFFFFFFFFFFFFFFFFFFFFFFFFFFFFFFFFFFFFFFFFFFFFFFFFFFFFF39
:2007E000FFFFFFFFFFFFFFFFFFFFFFFFFFFFFFFFFFFFFFFFFFFFFFFFFFFFFFFFFFFFFFFF19
:20080000BAD4FFFF0000005C41414141FFFFFFFFFFFFFFFFFFFFFFFFFFFFFFFFFFFFFFFF00
:20082000000102030405060708090A0BFFFFFFFF020B5B021888FFFFFFFFFFFFFFFFFFFF7A
:20084000FFFFFFFFFFFFFFFFFFFFFFFFFFFFFFFFFFFFFFFFFFFFFFFFFFFFFF021C8DFFFF0A
:20086000FFFFFFFFFFFFFFFFFFFFFFFFFFFFFFFFFFFFFFFFFFFFFFFFFFFFFFFFFFFFFFFF98
:20088000FFFFFF0218FEFFFFFFFFFFFFFFFFFFFFFFFFFFFFFFFFFFFFFFFFFFFFFFFFFFFF5D
:2008A000FFFFFFFFFFFFFFFFFFFFFFFFFFFFFFFFFFFFFF021737FF0000B4000028002800F8
:2008C000283075A000A000A000A00000080008E001F000100010001000100010001000503A
:2008E000005000500010001000D0070000000000000F00010005003075070010000100810E
:20090000FF00000000FFA51EC31EAB1EFF02020208025000A0000000E803022FC001000090
:2009200014C00217C00100009B08021DC0010000B9020217C00100009C08021FC00100006B
:20094000CF020217C00100009D080221C0010000D1020217C00100009E080223C008000023
:20096000D2020217C00100009F080239C0010000A008FF0100FF20022FC001000075BF0237
:2009800017C001000004090227C00000000000021BC00300001F037B247B247B247B247B90
:2009A000247B247B247B247B247B247B247B247B241B273327152702020202020202020231
:2009C000010D0000001001022FC00100000EC00217C001000045090243C0010000440702BD
:2009E00017C001000046090241C00100002DC00217C00100004709023FC00100002BC002C6
:200A000017C00100004809023DC0010000C5BE0217C00100004909023BC001000029C00215
:200A200017C00100004A090237C00100000FBF0217C00100004B090249C00100008DBE023C
:200A400017C00100004C090235C00100003FBF0217C00100004D090233C00100004E091CDA
:200A6000022FC001000011C00217C0010000ED09102EBE0200007507021BC003000077070B
:200A80000219C00100004DBF0217C0010000ED09103EBE0200007607021BC00300007D07AF
:200AA0000219C00100005ABFFFFFFFFF00080101000302010600000000000000000000002F
:200AC0000000000000000000000000000000000000FFFF0110002000E803E5C754F84405BB
:200AE000F5C779012200000080FB120ADAB90003020B45E479427808B800028004F709D8EA
:200B0000FCE4794A7802B800028004F709D8FCE490028078C579068002F0A3D8FCD9FA7ABE
:200B2000447B089008B6782579038015E493A3AD82AE838A828B83F0A3AA82AB838D828ED4
:200B400083D8E9D9E77582DC7583D67407120B6D7582E575830A7400120B6D75D0007581D4
:200B60007F754080754102759F00020AEAC09FF59FE473D09F22D083D082C09FE493C0E009
:200B8000740193C0E0740293F59F22E066701008A3E066700A08A3E066700408A3E0662245
:200BA000E4936670130874019366700C08740293667005087403936622C3E7960809E7968F
:200BC0000809E7960809E79622C3E09608A3E09608A3E09608A3E09622C021C3E096F521E9
:200BE00008A3E096422108A3E096422108A3E09645217001D3D02122C3E49396087401932F
:200C0000960874029396087403939622080808EAC0E0EBC0E086F0E7A4FA180986F0E7A483
:200C20002AFA180986F0E7A42AFA180986F0E7A42AFA1986F0E7A4FBE5F02AFA190886F05F
:200C4000E7A42BFBE5F03AFA190886F0E7A42BFBE5F03AFA18180986F0E7A4C5F02BFBE490
:200C60003AFA1908E7C5F0C6A426F6E5F03BFBE43AFA1886F0E7A4F6E5F00826F6E43B08AB
:200C8000F6E43A08F6D0E0FBD0E0FA226016080808C6C313C618C613C618C613C618C6137C
:200CA000C6D5E0EA227009080808226016181818C6C333C608C633C608C633C608C633C665
:200CC000D5E0EA22E627F60809E637F60809E637F60809E637F622E026F608A3E036F60807
:200CE000A3E036F608A3E036F622E026F008A3E036F008A3E036F008A3E036F022C3E69701
:200D0000F60809E697F60809E697F60809E697F622C3E096F008A3E096F008A3E096F008DC
:200D2000A3E096F022E056F608A3E056F608A3E056F608A3E056F622E056F008A3E056F0BE
:200D400008A3E056F008A3E056F022E0F608A3E0F608A3E0F608A3E0F622E6F008A3E6F0FD
:200D600008A3E6F008A3E6F022E0FAA3E0FBA3E0FCA3E0FD22EAF0A3EBF0A3ECF0A3EDF07F
:200D800022E0F8A3E0F9A3E0FAA3E0FB22E8F0A3E9F0A3EAF0A3EBF022CAC0E0E6F0A30864
:200DA000DAFAD0E0FA22CAC0E0E0A3C582CCC582C583CDC583F0A3C582CCC582C583CDC528
:200DC00083DAE6D0E0CA22C3E498F8E499F9120E088026C3E49AFAE49BFBE920E7E9120E0B
:200DE00008E498F8E499F922C3E498F8E499F9120E08E498F8E499F9C3E49AFAE49BFB2249
:200E0000EB20E7CFE920E7E0B90010BB0008E88AF084F8AAF022E4FBC8FA22EB70227B1050
:200E2000C833C8C933C9335007C39AC3DBF280069A50012ADBEAC833F4C8C933F4C9FA22C7
:200E400075F008E4C833C8C933C933C99AC99B5004C92AC93BD5F0ECFBC833F4C8E4C9FA6A
:200E600022600D08C6A2E713C618C613C6D5E0F322600C08C6C313C618C613C6D5E0F422DA
:200E8000700422600D18C6C333C608C633C6D5E0F41822254010AF08F540400C1541800880
:200EA000F54040021541D2AF2200C0D0254010AF08F540500C05418008F54050020541D208
:200EC000AFD0D0222540F58210AF08F540400C15418008F54040021541D2AF8541832225C1
:200EE00040F582E43541F583222540FCE43541FD22E4732540C582C0E0E54134FFC583C069
:200F0000E0E540C3958224F810AF088583418582408008858341858240D2AFCEF0A3E52080
:200F2000F0A37821E608F0A3DEFAEFF0A3E58124FAF8E608F0A3E608F0A3E608F0A308089B
:200F4000E608F0A3E608F0A315811581D0E0FED0E0F8158115811581E8C0E0EEC0E02225EE
:200F600040C582C0E0E54134FFC583C0E0E540C3958224F910AF0885834185824080088589
:200F80008341858240D2AFCEF0A3E520F0A37821E608F0A3DEFAEFF0A3E58124FBF8E608ED
:200FA000F0A3E608F0A30808E608F0A3E608F0A315811581D0E0FED0E0F815811581E8C0B5
:200FC000E0EEC0E022854183854082E0A3FEE0A3F5207821E0A3F608DFFAE0A3FFE0A3C020
:200FE000E0E0A3C0E0E0A3C0E0E0A3C0E0E0A3C0E010AF08858240858341800885824085DA
:201000008341D2AFD083D082020B73854183854082E0A3FEE0A3F5207821E0A3F608DFFACA
:20102000E0A3FFE0A3C0E0E0A3C0E0E0A3C0E0E0A3C0E010AF0885824085834180088582BC
:2010400040858341D2AFD083D08222C0D02540C582C0E0E54134FFC583C0E0E540C39582A3
:2010600024F310AF088583418582408008858341858240D2AFC8F0A3E9F0A3EAF0A3EBF03A
:20108000A37921E709F0A3D8FAECF0A3EDF0A3EEF0A3EFF0A3D0E0F0A3D0E0F0A3D0E0F096
:2010A000A3E520F0A3E5F0F0A322854183854082E0C0E0A3E0F9A3E0FAA3E0FBA37821E0C8
:2010C000F608A3DFFAE0FCA3E0FDA3E0FEA3E0FFA3E0C0E0A3E0C0E0A3E0F5D0A3E0F52011
:2010E000A3E0A3F5F010AF088583418582408008858341858240D2AFD082D083D0E0F8D0D8
:20110000E03274048006740280027401C0E0F404120EC4D0E0120D9922740480047402805A
:2011200000CCC0E0EDC0E0E540C39CCCAD4150011D10AF068C408D4180068C408D41D2AF0A
:20114000120DA6D0E0FDD0E0FC22D083D082E9C0E0E493A3C386F0C5F095F0F908E493A379
:2011600086F0C5F095F0700BE493A3C3994005E9048002A3E475F002A42582F582E5F03560
:2011800083F583D0E0F9E493A3C0E0E493C0E022D083D082ECC0E0EDC0E0E493A3FCE4936D
:2011A000A3FDED4C600D1211DCEC24FFFCED34FFFD80EFE493A3FCE493A3FDED4C600D126E
:2011C000121BEC24FFFCED34FFFD80EFD0E0FDD0E0FCE493A3C0E0E493C0E022C0E0C3E4B8
:2011E0009396087401939618400FE49366700808740193661870007019A3A3C3E4939608BF
:201200007401939618A3A3400DD0E0D0E0D0E00211CCA3A3A3A3A3A3D0E022C0E0C0F0881A
:20122000F0E4936670080874019366187000A8F0A3A3700BD0F0D0E0D0E0D0E00211CCA3C0
:20124000A3D0F0D0E022D083D082ECC0E0EDC0E0EEC0E0EFC0E0E493A3FCE493A3FDE493DA
:20126000A3FEE493A3FFEF4E4D4C60151212C2EC24FFFCED34FFFDEE34FFFEEF34FFFF809B
:20128000E5E493A3FCE493A3FDE493A3FEE493A3FFEF4E4D4C60151212FFEC24FFFCED3471
:2012A000FFFDEE34FFFEEF34FFFF80E5D0E0FFD0E0FED0E0FDD0E0FCE493A3C0E0E493C0E6
:2012C000E022C0E0C0F088F0120BF8A8F04007120BA0A8F0701AA3A3A3A3120BF8A8F0A395
:2012E000A3A3A34013D0F0D0E0D0E0D0E00212ACA3A3A3A3A3A3A3A3A3A3D0F0D0E022C072
:20130000E0C0F088F0120BA0A8F0A3A3A3A3700BD0F0D0E0D0E0D0E00212ACA3A3D0F0D003
:20132000E022FFFF74F5120F5FEAFEEBFFEE2434F8EF3400F988218922EE2435121450F88F
:20134000EE2437121450F523EC8523F0A4FCAAF08523F0EDA42AFDE82CF8E43DF97A257B68
:2013600000120E08EA852182852283F074075AF87401B800028004C333D8FCFBEA131313B1
:20138000541FF8EE28F8EF3400F9E8245DF582E91214535B6003EA801CEE2436121450F57F
:2013A000F0EA84A8F0EE28F8EF3400F9E82438F582E9121453F97F0402100B74F5120F5F6E
:2013C000EAFEEBFFEE2434121450C0E0EE2435F582EF3400F583D0E0F08E828F83A3A3A3DB
:2013E000A3A3E0FAA3E0FB8E828F83A3A3A3A3A3A3A3E0FCA3E0FDECC39AF523ED9BF5245A
:20140000EE247FF521EF3400F522852182F583E06401702BEE2480F582EF3400F5831211A4
:201420001D1214597402120EA9E960137CE27D04EEFAEFFB1223A3852182852283E4F0AC1A
:2014400023AD24EEFAEFFB121324121C7F0213B6F582EF3400F583E022C082C08385408225
:20146000854183E0F8A3E0F9C3EA9CEB9D5010C3EC98ED99401BC3EA98EB995014800EC3F8
:20148000EA98EB994007C3EC98ED994004790180027900D083D08222EAC39CFAEB9DFB22CA
:2014A00074ED120F5F9003A8E064086005E06407702C9061C8E060269003D6E0F874FF683D
:2014C000601CE875F003A4C8AAF02AF974D828FE740339FF8E828F83A3A3A3E0700579001D
:2014E000021640EE2468F529EF3400F52A906060E0852982852A83F075234B752405752121
:2015000000752200E5D914F527E5D95403F528601CEE2482F525EF3400F526740365286048
:2015200058E5276013EE2467121450700B793DEEFAEFFB1223C780A6900546E0640160261A
:20154000852582852683E06004780480027800852721E521C398FA95E0FB1222538A218B22
:2015600022EA4522700612260D0214DE852582852683E070048A238B2478008016E5D9C0B3
:20158000E0882BE523252BF582E5243400F583D0E0F008E8C3952740E4852582852683E0C7
:2015A000602874FC2527F5277823121106AC27A928EEFAEFFB1224757402120EA9E9700A44
:2015C000AA21AB2212290702152D7403652860588527257526007825121106AC23AD24AAB5
:2015E00021AB221224397402120EA9852982852A83E0F8748068700575257F80028825E517
:2016000025F523782312110AE528F523782312110AA927AC21AD229003D6E0FA7B0012207C
:20162000F77402120EA980139003A8E06408600BAC23AD24EEFAEFFB12250B122619790170
:201640007F0C02100B74F3120F5F74FC120E93EAFEEBFF8921A2AFE433F522C2AFEE2463F7
:20166000F523EF3400F5248010AA23AB241223F11229079004E9E004F0852382852483E0FB
:20168000F8A3E0F9E849602FE82402FAE93400FBEA2402F525EB3400F52678251211068A42
:2016A000828B83E0FCA3E0F9EEFAEFFB1223E57402120EA9E960B29004E9E060579004EA8A
:2016C000E0F89004E9E0C398500C7402652170449004EBE0603E8E828F83A3A3A3A3E0855E
:2016E00040828541831217247402120EDFE81217249004E8E028F07402120EDFAC82AD83A1
:20170000854082854183AA82AB8379011220FD9004E9E4F0E522A2E092AF7404120EA97F5B
:201720000602100BF0A3E4F09004E9E0F822FFFF8542878543C622C0E074EF12104BA2AFEB
:20174000E433FEC2AF759B00906182E0A2E05012E591A2E0500C7591FE74016542700312C3
:2017600014A0E0A2E55051E591A2E5504B7591DF9003A8E064076005E0640870237401658C
:2017800042703579019003D6E0FA75F003A4CAA8F028FB74D82AFA74033BFB1216458018F2
:2017A000E0640D70139003CAE004F064287002E4F07A00E0F912261F906182E0A2E640038A
:2017C00002185EE591A2E6400302185E7591BF9003A8E06405700812254D1225598003126E
:2017E00025537542001225BFE99003A9F079001225B31223137A017B009003A7E0F91228C1
:20180000D1907803E06442705590054AE014F0704DC2AF12181600784BD0E0F618D0E0F649
:20182000E59F540770057522FF800375227FC4C0E0784AE6F52108E65522F522740B78216F
:20184000120E71D0E02521F8906270E0A2E740F8E8C333906272F0906270E0D2E0F09061FF
:2018600081E0A2E35009E5E9A2E3500375E9F7A3E0A2E75009E591A2E7500375917FEEA262
:20188000E092AF7F040210AAC0E0C0D0C082C083906183E0A2E05009E5BFA2E0500375BF57
:2018A000FEE0A2E15009E5BFA2E1500375BFFDE0A2E25009E5BFA2E2500375BFFBE0A2E3F7
:2018C0005009E5BFA2E3500375BFF7E0A2E45009E5BFA2E4500375BFEFE0A2E55009E5BF45
:2018E000A2E5500375BFDFE0A2E65009E5BFA2E6500375BFBFD083D082D0D0D0E032C0E001
:2019000074F212104BE5A7A2E4500FE5A1A2E4500953A7EF75A1EF121952E5A7A2E5500C44
:20192000E5A1A2E5500653A7DF75A1DFE5A7A2E15009E5A1A2E1500375A1FDE5A7A2E2503F
:201940000CE5A1A2E2500653A7FB75A1FB7F010210AA74F8120F5F7542019003A8E06406B0
:2019600070077A007B00122535A2AFE433FED2AF9003AEE0640170187A207B009003A7E06B
:20198000F91229737A207B009003A7E0F91228D7906182E0D2E6F0900547E0602185C643A1
:2019A00080169003ADE064017008E5C654F84405F5C653BEFC1217307401654260E4EEA243
:2019C000E092AF7F0102100B8E448F45858249858348854082854183E0CEA3E0CF85498223
:2019E000854883EBC9EAC8EDCBECCA75F010C3E833C8E933C9EA33CAEB33CBC3EA9EF5476C
:201A0000EB9FF546B35004AB46AA47EC33CCED33CDD5F0DAAE44AF452274F1120F5F8A2109
:201A20008B228C238D2490BFD67821120D25740F120EDF7825120D4B90BFD67825120D2508
:201A400078217925120BB990BFA6501078217925120CFD7821120BD94014800E782579212A
:201A6000120CFD7825120BD950047901800279007F0802100B74ED120F5F8A218B228C2363
:201A80008D2490BFD67821120D257413120EDF7825120D4B90BFD67825120D2578257921C9
:201AA000120BB9401178217925120CFDAA21AB22AC23AD248022752900752A00752B007581
:201AC0002C0178297925120CFD78297921120CC4AA29AB2AAC2BAD2C7F0C02100B90BFD63D
:201AE0007821120D4B8A828B837821120D387F0402100B74F5120F5F8C828D837821120D7A
:201B00004B8A828B837821120D11121B47C3E098F0A3E099121B39401E90C0027821120D0E
:201B20004B8A828B837821120CEA8E828F83E02420F0A3E0344EF080A4F08E828F83C3E09B
:201B40009420A3E0944E22EA2404F8EB3400F9E8FEE9FF8C828D83A3A3A3A3E0F8A3E0F95C
:201B60008E828F832274F5120F5FE9FE9004FDE0FAA3E0FBEEC333F8E433F974FF28F5826A
:201B800074BE39F583E02AF521A3E03BF522782112110690BFEE120D691219C87402120E5D
:201BA000A98A218B228C238D2474107821120C8CAA21AB227F0402100B74F1120F5F8A2531
:201BC0008B268C278D28740F120EDFE0FAA3E0FB7411120EDFE0F521A3E0F5227821121142
:201BE00006EA2401F521EB3400F522E4F523F52478257921120C0C90BFB27821120D4B7892
:201C0000257921120C0CAA25AB26AC27AD281219C87402120EA98B22EA452260047A018004
:201C2000027A00EC2AFCED3400FD7413120EDFE0F8A3E0F9E8FEE9FFECF8EDF97A717B021E
:201C4000120E0888218922E4F523F5248E828F837821120D5AECF8EDF97A717B02120E0865
:201C60008A218B2274057821120E808E828F83A3A3A3A3E521F0A3E522F07F0802100BC0B8
:201C800082C083E9906000F0D083D08222C0E0C0D0E8C0E0E9C0E0A9A8D2AFC2C7E9A2E7E1
:201CA000E433F8E9A2E792AFD0E0F9D0E0F8D0D0D0E032C2AF02000022120B76C5D50712B4
:201CC0000B763CD607120B762CD707120B7631D707120B769CCB07120B76B3CB07120B767F
:201CE000E4CB07120B761FCC07120B7649CC07120B7673CC07120B768ACC07120B76A1CC31
:201D000007120B76B8CC07120B76E1CC07120B76F4CC07120B760ACD07120B761DCD0712F6
:201D20000B769CE406120B76A0E506120B76D8E506120B76FBE506120B7606E606120B7697
:201D400029E606120B7638E706120B760DE806120B7688E806120B7610E906120B764BE9C6
:201D600006120B7682E906120B7610EA06120B76E9EA06120B7649EB06120B7654EB0612A3
:201D80000B76D3EB06120B76D6EB06120B76D9EB06120B7668EC06120B766BEC06120B76D7
:201DA0009BEC06120B76C5EC06120B76B3ED06120B7665EE06120B761DAF07120B7645AF3A
:201DC00007120B7673AF07120B76AAAF07120B7608B007120B7653B007120B769EB0071264
:201DE0000B76DEB007120B7624B107120B7652B107120B760FB207120B7619B207120B766E
:201E000026B207120B7659B207120B7625B307120B7631B307120B7649B307120B7653B31F
:201E200007120B76FCD407120B7614D507120B762CD507120B763EC206120B761AC30612F2
:201E40000B767EC406120B76D5C406120B7656C506120B7646C606120B7693C606120B76A9
:201E600019C706120B764BC706120B765FC906120B76A1C906120B76BFC906120B7642CA4D
:201E800006120B7616CB06120B76DECB06120B76E29107120B76B59207120B765E930712F5
:201EA0000B76B19307120B76619407120B76ED9407120B76D99507120B76089607120B76D9
:201EC0001B9707120B76639707120B76389807120B76749807120B76909807120B76FCB79D
:201EE00007120B7622B807120B763EB907120B7648B907120B767DBA07120B7675BB07128E
:201F00000B760AA507120B763AA607120B766DA607120B76B7A607120B767EA807120B7619
:201F2000008006120B766A8006120B76C98106120B76D98106120B76068206120B7662822A
:201F400006120B76698306120B76338406120B76938506120B76DC8506120B7629860612A1
:201F60000B764F8606120B765D8806120B76628806120B76678A06120B76B48A06120B7610
:201F8000278B06120B765A8B06120B76FC8B06120B76A58C06120B76DD8C06120B76E08C20
:201FA00006120B76288D06120B76688D06120B764F3D00120B76673D00120B76AF3D001258
:201FC0000B76C53D00120B760C3E00120B76203F00120B76AD3F00120B764CC005120B76F9
:201FE00087C005120B76CCC005120B768CC105120B7612C205120B7677C205120B76A3C257
:2020000005120B76DCC205120B761AC505120B76FEC605120B76E4C805120B7627CA0512D3
:202020000B7675CC05120B7687CD05120B76D2CE05120B76E2CF05120B76FFCF05120B7673
:202040003AD005120B765CD005120B76BFD005120B7680D505120B7615D605120B7667D646
:2020600005120B7685D605120B76DFD605120B76DED705120B7662D805120B7631AA071275
:202080000B763BAA07120B767EAA07120B7699AA07120B7629AB07120B7651AB07120B769D
:2020A0008EAB07120B76C5AB07120B76EEAB07120B7663AC07120B7678AC07120B768DAC70
:2020C00007120B76CEAC07120B7608AD07120B7634AD07120B7662AD07120B76ADAD07126C
:2020E0000B7657AE07120B76A0AE07120B76CAAE07120B76F5AE07120B76E2D107120B763C
:2021000019A906120B7667AA06120B7647AB06120B7666AB06120B76E3AB06120B7626AC8C
:2021200006120B767CAD06120B763DAE06120B76C4B006120B7665B106120B765BB20612DF
:202140000B7658B306120B76B2B406120B763DB506120B7687D007120B76F0D007120B7685
:2021600044D107120B766BD107120B769CD107120B7669FB05120B76D6FB05120B761DFC55
:2021800005120B7635FD05120B7631FE05120B7614FF05120B76798907120B76BB89071272
:2021A0000B768D8A07120B76668B07120B76608C07120B76428D07120B76AB8D07120B76A1
:2021C000618E07120B76D58E07120B76418F07120B766A8F07120B76E48F07120B767D9062
:2021E00007120B76E29007120B76F79007120B763D9107120B76569107120B76BB910712CA
:202200000B76BE9107120B761EC207120B7646C207120B7684C207120B7642C307120B76B9
:20222000A9C307120B76C5C307120B76EDC307120B761DC407120B762CC407120B76A9C4BA
:2022400007120B7656EA05120B76F4EB05120B760FEE05120B764BEE05120B7678EE0512B2
:202260000B765DEF05120B76A4EF05120B76E8EF05120B7615F005120B7660F005120B76DA
:20228000A0F005120B76CEF005120B7620F105120B76B0F105120B764EF405120B7664F6AA
:2022A00005120B76A2F605120B7633F805120B7678F805120B76EFF805120B7639F90512C3
:2022C0000B765AF905120B76FEF905120B76008007120B767F8007120B76418607120B76EF
:2022E000508707120B76B88807120B764F8907120B76D02900120B76192A00120B76462A4F
:2023000000120B76792A00120B76862A00120B76922A00120B76A42A00120B768B2B001239
:202320000B76E92B00120B761E2C00120B76612D00120B76B82D00120B76252E00120B7619
:20234000E32E00120B769C2F00120B76093000120B76BB3000120B76CB3000120B76523120
:2023600000120B76113200120B763E3200120B76B73200120B76143300120B765E330012F8
:202380000B76F43300120B76BF3400120B76743500120B76E93500120B764A3600120B767C
:2023A000B43600120B76ED3600120B768F3700120B769F3800120B76DF3800120B76FC3849
:2023C00000120B761B3900120B76623900120B76873900120B76B43900120B762E3A001208
:2023E0000B766F3A00120B76933B00120B76433C00120B769A3C00120B76043D00120B7670
:202400001D3D00120B76D6EE06120B7629EF06120B7635EF06120B760AF006120B7631F050
:2024200006120B766CF006120B76D8F006120B7614F106120B764DF106120B7665F10612CA
:202440000B76BAF106120B76D3F106120B761CF206120B762FF206120B7649F206120B7625
:202460005FF206120B7692F306120B76D9F406120B76DBF506120B76D5F606120B76FB3FE7
:2024800000120B76DD9B06120B760D9C06120B76D59F06120B762CA106120B76F5A1061235
:2024A0000B7675A306120B7646A406120B7683A406120B76A6A406120B76E4A406120B76A3
:2024C000EDA406120B7637A506120B7641A506120B76EBA506120B76C4A606120B7618A7F3
:2024E00006120B767AA706120B76CDA706120B76FCA706120B7639A806120B76C9D805120E
:202500000B7630DC05120B7636DC05120B76B8E105120B7631E605120B7607EA05120B7683
:202520007FBB07120B76F5BB07120B760BBC07120B764CBC07120B7686BC07120B76FFBCE3
:2025400007120B763ABD07120B76ADBD07120B76EBBD07120B76F4BD07120B7600BE0712E8
:202560000B761CBE07120B7647BE07120B765DBE07120B76A1BE07120B76D1BE07120B76F0
:20258000E4BE07120B76FEBE07120B7627BF07120B766ABF07120B76A9BF07120B76E7BFBE
:2025A00007120B764CC007120B7661C007120B766CC007120B7679C007120B7690C007121E
:2025C0000B769EC007120B76A9C007120B76B5C007120B76C8C007120B76D3C007120B7621
:2025E000F0C007120B7600C107120B7616C107120B7632C107120B763DC107120B7652C18D
:2026000007120B7666C107120B76C7C107120B76CDC107120B76D3C107120B76D9C1071234
:202620000B76EBC107120B765A8E06120B76E68E06120B76459006120B76669206120B7646
:20264000529306120B76879306120B76A99306120B76589406120B76509606120B76799661
:2026600006120B760B9706120B763D9706120B764A9706120B76A19706120B76C797061258
:202680000B76349A06120B76379B06120B768F9B06120B7620CE06120B762ACE06120B760C
:2026A0004CCE06120B7658CE06120B76F1CF06120B7620D006120B763CD106120B7695D1BA
:2026C00006120B7609D306120B7676D306120B76B1D306120B76F0D306120B76A9D60612FA
:2026E0000B76C3D606120B764FD706120B765DD706120B76B6D706120B76C4D706120B7641
:2027000037D806120B769BD806120B76E5D806120B766ED906120B7690D906120B76B6DB3C
:2027200006120B76CBDE06120B76E3DF06120B7696E006120B7678E106120B7644CD071238
:202740000B7669CD07120B76DBCD07120B76A0F806120B76A9F806120B76B2F806120B7638
:2027600089F906120B763AFB06120B7670FB06120B76AAFB06120B76E0FB06120B761AFCA4
:2027800006120B764EFC06120B767AFC06120B76C3FC06120B76FDFC06120B7646FD061269
:2027A0000B769EFD06120B76D3FD06120B762EFE06120B7668FE06120B76B9FE06120B76E7
:2027C000EFFE06120B7629FF06120B764CFF06120B76D73F00120B76E13F00120B76F13F42
:2027E00000120B76F1C407120B7616C507120B768BD707120B7639D807120B7645D80712A5
:202800000B76ECFF06120B767CD607120B768CD607120B7695D607120B76D9D607120B767D
:20282000FBD207120B767FD307120B76E5D307120B76059907120B76429907120B765E994F
:2028400007120B76289A07120B760D9B07120B766C9C07120B76D89C07120B76BE9D07121C
:202860000B76449E07120B76519F07120B76D2D707120B76E4D707120B76959F07120B766B
:202880009F9F07120B76DF9F07120B7628A007120B7662A007120B76B8A007120B76D7A0E1
:2028A00007120B76E0A007120B7631A107120B765AA107120B7664A107120B76D5A1071235
:2028C0000B7663A207120B76B8A207120B76E6A207120B7662A307120B76A5A307120B7641
:2028E000E2A307120B76F4A307120B7610A407120B7619A407120B76DEA407120B7634D7BC
:2029000007120B76E9CE07120B763ACF07120B76C3CF07120B7629D007120B765AC7071230
:202920000B7684C707120B764DC807120B7628C907120B76FED307120B769AC907120B768F
:20294000D0C907120B7609CA07120B7662CB07120B76DAB307120B76EFB307120B76A2B457
:2029600007120B76E2B407120B76FBB407120B762EB507120B767BB507120B76AFB5071280
:202980000B76F1B507120B76BEB506120B7667B906120B76C1B906120B76E0B906120B766C
:2029A0003DBA06120B76ABBB06120B7696BC06120B76C4C006120B768EC106120B760DD8B3
:2029C00007120B76D6FF05FFFFFFFFFFFFFFFFFFC082C0839061907404F0A37448F0A3E448
:2029E000F09061807440F09061BC7407F09061877469F09061B67416F07900122319790212
:202A000012231F9029CCE493F46006E493F91222F57905122601022DB1C082C083E9540F0B
:202A2000F9906185E0696012E5C654804449F5C6E59E547F644970F8E9F053C680E59E54F1
:202A40007F70FA022DB174F7120EF3E5A8FE53A87E122301C2BA539AFEC289759B00C2C2AF
:202A600012230775A91175B90512230DD2BA439A0174805E42A8023348C082C0839061815C
:202A8000E4F0A3022DAE75E90075910075BF00020B73C082C083906181E4F0A374C0F0A395
:202AA000E4022DB0C082C08374F8120E939003AA123CE17003022B839003AAE054406023EC
:202AC0007908854082854183AA82AB8312240F854082854183AA82AB831220DF9003AAE02E
:202AE00054BFF0E054806010790C7A6B7B0512240F9003AAE0547FF0E0A2E0500F79001254
:202B000023191220E59003AAE054FEF0E05402600F79011223191220E59003AAE054FDF021
:202B2000E05404600F790012231F1220EB9003AAE054FBF0E05408600F790112231F1220FD
:202B4000EB9003AAE054F7F0E05410600F790212231F1220EB9003AAE054EFF0E05420608F
:202B60000F790312231F1220EB9003AAE054DFF0A3E05401600D12232B1220F19003ABE033
:202B800054FEF07408120EA9022DB1C082C083E9600514602A804F90619A7433F0A3745500
:202BA000F09061A0743AF0900545E064017009C2919003AC7467802D9003AC7461802690FA
:202BC000619A743FF0A3745AF09061A0747FF0900545E064017009D2919003AC74718005DE
:202BE0009003AC746AF0022DB1C082C083E9600B14600D14601714600C80209029C88015CD
:202C00009029C98010900545E0640170059029CA80039029CBE493906186F0022DB174EE64
:202C2000120EF374F4120E93854082854183AC82AD837583BF7582B67404120DA69029C856
:202C400093F46003022D48907808E0C394025003022D287404120EDFAC82AD837583BF751F
:202C6000826D7408120DA6FC7EFF7FFF8E257D008C82858227800F74086D606D74096D6032
:202C800068740A6D60638D2175220074027821120E80122D52120D4BA922E523C9F88829EA
:202CA00074187821120C8CE5294521FAE9FBE527C333F8E433F97404120EDFE58228F5826C
:202CC000E58339123238C3E89AE99B4008E8C39AF8E99B8006EAC398F8EB99F9C3E89EE993
:202CE0009F5006E8FEE9FF8D250DEDC39413408774FF6E700374FF6F6024852521740278C1
:202D000021120E80122D52120D4B854082854183E5822527F582E5831236D7E521F00CECC8
:202D2000C394045003022C6875210175220078211211067402120EDFAC82AD837A727B0A1B
:202D40001228237402120EA9740C120EA97F0A020FC574482521F58274783522F583782162
:202D600022C082C083906186E0F89029CBE4936870099029CAE493906186F09061AE7468A5
:202D8000F0A3746AF090624574FBF0A304F053F4FD43FE029005457401F09061A0E0643AD0
:202DA0007004790080027901122319022DB1F0A3F0D083D082020B73C082C08375E1F190F8
:202DC00004FAE0604D1460091460511460491470501223379004F0E0F97AF17B0412259516
:202DE00090BFAE120D691225CB90BFDA120D691225A19004FBE0F91225AD79011225F512BF
:202E00002ED424161236D4744FF0A37423F07900809F12233D80BD12234380B81223498088
:202E2000B3791280EB74F4120EF375D90D9004DBE0A2E0E4331313F8122ECA484401F5D9A8
:202E40007800122F3740FB7800882174DC123C377404122F4140F275E1959004DBE0F97A78
:202E6000DC7B0412259B90092574CBF0A37422122F47122F8B122F8212309F9004FAE06435
:202E8000019004EE700B122EDD120D4B90BFAA8009122EDD120D4B90BFCA7821120CD7906D
:202EA000BFD67821120D25122ED4240E1236D47821120D5A122ED424141236D47413F090BD
:202EC00003A87402F07F04020FC59004F0E0C4333354C0229004EEE0F8A3E0C822123B6F41
:202EE00078212274F6120EF31230708AD97800122F3740FB78008006122FE8123125E8C320
:202F00009940F5123062122F3740FB78008008123C337405123125E8C39940F375E1959038
:202F2000092574D7F0A37422122F47122F517412F09003A802330C882174F12521F58274A4
:202F4000041232A294062212308874D1F0A3742222122F8B122F821230A39004EEE0F8A300
:202F6000E0C8240E122F7A74FF1239AC9004EEE0F8A3E0C82414122F7A22F582E83400F510
:202F80008322F0A374E9F0A3742222122F8F22122F9322F0A3747BF0A374242274F6120E10
:202FA000F3122FDD122ECA4402F5D97800122F3740FB78008006122FE8123125E8C39940A4
:202FC000F575E195900925122FF3F0A3122FF3122F547414F09003A8740402330E900500C0
:202FE000E0F9740729F5D922882174012521F58274052274E3123000123000F0A3742222C8
:20300000F0A37422F0A374E32274F6120EF312307074064AF5D97800122F3740FB78008097
:2030200006122FE8123125E8C39940F5123062122F3740FB78008008123C337405123125C7
:20304000E8C39940F375E19590092574DDF0A3742212307E122F517415F09003A874030257
:20306000330E900520122FE074044AF5D9780022122FDD9004F0E0C4333354C0FA221230F1
:2030800088747BF0A374242212308C22123099747BF0A3742412309922122F93F0A32212EF
:2030A00030A322F0900933747BF0A3742412308C747BF0A37424122F8FF022C082C08312E4
:2030C0002ED424061236D4E4022DAE74F7120EF39003D6E0F875F003A4C8AAF02AF974D84B
:2030E00028F8740339F9E82405FAE9123B82A3A3A3A3A3A3A3A3A3123C83A3A3A3A3A3A3E6
:20310000A3E024FFF8A3E034FFF98A828B83E8F0A3E9F00233487F06020FC58821744B258F
:2031200021F58274051236AEF5D90822EAFEEBFF9061D0E0F87480C398FAEE2482221231E3
:2031400044940422F582E93400F583E0F5D90AEAC32274F6120EF3EAFEEBFF9061D0E0608E
:20316000030231E675D90E75D90375D9047A008A21EE2521123C3C248B1231EB40F17A00C9
:203180008A21EE2521123C3C248312313E40F175E1957908EE248BFAEF3400FB122403799A
:2031A00004EE2483FAEF3400FB1224037C008C82AA82C3E49AF895E0F9EE28F8EF39F9E8B1
:2031C000248AF582E91236AAC0E0EE2A123C3C24AAF582E91236D7D0E0F00CECC394084029
:2031E000CD1231F48002790002330F12314494082275E195EE246FF582EF122F7D123CFE6B
:20320000EE2471F582EF122F7DE8F0A3E9F0790122C082C08375D90275D90375D90575E148
:2032200095EA246FF582EB123236EA2471F582EB123206022DB13400F583123CFE2274F611
:20324000120EF3EAFEEBFF90054B74061232AD1211067C01790312246F7402120EA975D9EA
:203260000675D903780012329240FB75E1959003A8E064087017EE246FF582EF123236EE26
:203280002471F582EF1236D7E8F0A3E9F0790102330F8821744B2521F58274051232A294EA
:2032A00005223400F583E0F5D908E8C322F075214B75220578212274F6120EF3EAFEEBFF41
:2032C0009061D0E07042790190054B740BF09003A8E06407701975214B752205782112118A
:2032E000067C01090912246F7402120EA97905740129F5D975D9037800800312311BE8C316
:203300009940F81231F18002790080037401F07F02020FC574F7120EF3EAFEEBFF75D903CD
:2033200075D90375D90DEE24DD12333975E19579041225D11231F4800FF582EF1236AEF5ED
:20334000D922A2E092AF79007F01020FC57F03020FC574012523F5D975D90378002274F5A9
:20336000120EF31233DE6004780480027800E8240BF8EAC398405575230990054B7409F066
:2033800079081233D11223FD852182852283E0601E75214B75220578211211067C09790374
:2033A000EEFAEFFB12246F7402120EA975230D123352800312311BE8C3952340F775E195B5
:2033C00079041225D112355179018002790002334DEE24E2FCEF3400FD7A4C7B052212311E
:2033E0002CF8EF1233E7223400F9882189228882F583E02274F3120EF38A218B2212355DF1
:20340000FAE5212482F523EB1234B46004780480027800E82408F8EAC39850030234AD7533
:20342000250690054B740CF09003C5E090054CF07402C0E0F97CC67D037A4D7B051223FDBE
:20344000D0E0F97CC87D031223FD852382852483E0601E75234B75240578231211067C0652
:203460007903AA21AB2212246F7402120EA975250A74012525F5D975D90378008009882326
:20348000744B2523123121E8C3952540F175E19579041225D1E521246FF582E5221232362A
:2034A000E5212471F582E522123206800279007F05020FC53400F524852382F583E02274EF
:2034C000F6120EF3EAFEEBFF12355DFCEE2482F8EF1235E060047A0480027A00EA2404FAE5
:2034E000ECC39A40607A0290054BEAF0EE24F4F582EF123567601B75214B752205782112F0
:2035000011067C027903EEFA12246F7402120EA97A0674012AF5D975D90378008003123152
:203520001BE8C39A40F875E195EE247312354AEE247F12354A12355179041225D1EE240D94
:203540001231F78002790002330FF582EF1236E622EE241DF582EF1236E6A3F0229061D003
:20356000E0F87480C398221236AE90054CF088828983E02274F6120EF312355DFEEA248274
:20358000F8EB1235E060047C0480027C00EC2404FCEEC39C40457C0290054B7407F0EA2486
:2035A000F5F582EB123567601775214B7522057821121106790312246F7402120EA97C066E
:2035C00074012CF5D975D9037800800312311BE8C39C40F875E19579018002790002330FAF
:2035E0003400F988828983E02274F5120EF3E9FEA2AFE433F523C2AF7F00EA246EF8EB3420
:2036000000F980010F88828983E0F521EFC3952150188F21EA2521FCEB3400FDEC246AF5DE
:2036200082ED1236AA6E70DC8017EA2521FAEB3400FBEA246AF582EB1236D7EE12356D04F5
:20364000F0E523A2E092AF02334D74F6120EF3A2AFE433FFC2AFEA246EF8EB123A14E01425
:20366000F07E0080218E21EA2521F8EB123C3E246BF582E91236AAC0E0E8246AF582E91284
:2036800036D7D0E0F00E8C828D83E0F8EEC39840D4EA246DF582EB1236D774FF1236DBEF9B
:2036A000A2E092AF02330FF582EB1236AE223400F583E022C082C083E5A8F8C2AFEA246AE8
:2036C000F582EB1236D7E91236DBE8A2E7A2E792AF022DB1F582E8122F7D22F0EA2469F5A7
:2036E00082EB1236E6223400F583E4F02274F2120EF38C828D83A3A3A3A3E0541FF0EA24F7
:2037000036123A0A8E828F83E4F0F525852582858223EC2523F8ED1233E7C0E0EA2523F8A8
:20372000EB123782D0E0F0752600852182852283E0F523752400E5267823120E61E523A2E4
:20374000E0502AE52533333354F82526C0E08E828F83E0F8EA28F8EB123C3E2438F582E9FE
:203760001236D7D0E0F08E828F83E004F00526E526C3940840B40525E525C39405408D02AC
:2037800031163400F9E8245DF582E9122F7D2274F6120EF39003D4E0640170030238907A2C
:2037A000009003DAE060030238907401F0A3E4F0A3F090043A04F090043FF09003DD1239E0
:2037C000A79003E704F090040DE4F09003F01239A8A3F0A3F0A3F0900457F090044BF090F6
:2037E00004407480F0A3E4F0900446F09004C21238979004CBF090045AF09004AA123897DD
:20380000A3F0A3F09004B6F09004B8F09004B4F09004CE1238978A217442123C3774041221
:2038200036D774FFF00AEAC3940440EA7A008A82A88274E228F58274041236AAC0E0743547
:2038400028F58274041236D7D0E0F00AEAC3940540DC7A008A82A88274BC28F5827403121E
:2038600036AAC0E074BA28F58274041236D7D0E0F00AEAC3940840DC9003D4E004F06401B5
:2038800070089003DCE09003D6F07AD87B0380047A007B0002330F1239ACA31239AC22C008
:2038A00082C083EA24031236A76008E4F09003D5E014F09003D4E014F070069003D674FF1E
:2038C000F08A828B83A3A3E4F09004E7E0700D9003D5E06401700579001225B3022DB1C0C7
:2038E00082C0839003DBE4F09003DAF09003D4F0A3F0A374FFF075E1F1022DB1C082C083C8
:20390000780079009003DBE0600478D8790388828983A3A3A3A3E0F9022DB174F6120EF360
:20392000EAFEEBFFEE2463F521EF3400F5228016AA21AB221223F11229079004E8E004F00A
:203940009004E9E004F0852182852283123CE170DFEEFAEFFB1223AFEEFAEFFB1224A502E1
:20396000330F74F7120EF3EAFEEBFF8E828F83A3A3A3A3E0FA7B0012212DEEFAEFFB12234B
:20398000C112248702334874F6120EF37800882174BC123C37740312354D08E8C39408403F
:2039A000ED9003BC02330CE41239AC22F0A3F0A3F0A3F02274F6120EF3EA240D123A0AECE8
:2039C0002403F8ED3400F988218922EC2407F8ED123A1412323A852182852283E0FAA3E0D1
:2039E000FB120E088E828F83E8F0A3E9123CF5852182852283E0FAA3E0FB120E088B22EA72
:203A000045226003123A2002330FF8EB3400F9E8FEE9FF223400F9E8FCE9FD8C828D8322F5
:203A20008E828F83E02401F0A3E03400F02274F6120EF3EA242E1236A7FCA3E0FDEA246F05
:203A4000123A0A780079FAECFAEDFB120E088E828F83E8F0A3E9F0780079FAECFAEDFB12EE
:203A60000E088B22EA45226003123A2002330F74F0120EF3EAFEEBFF7410120EDF782112A8
:203A80000D4B1225658A258B268C278D2890BFA27825120CD790BFD67825120D2578251232
:203AA00011028E828F83123B6B120D69121A197404120EA9E96003023B5B8E828F83E02401
:203AC00002F8A3E0123C3EFAE9FB8A828B837821120CEA90BFD67821120D4B8A828B83788A
:203AE00021120D38EE240BF582EF1236D7C082C0838E828F83A3A3A3A3A3E02401F8A3E056
:203B00003400F9D083D082E0687003A3E069700479018049EE2407F8EF3400F98882898332
:203B2000123A24EE2473123B627014EE2474123B7A7003A3E06D70078A828B83123A24EEBE
:203B4000247F123B627014EE2480123B7A7003A3E06D70078A828B83123A2479007F0802D0
:203B60000FC5F582EF1236AE640122123B6F22E0F8A3E0F5838882A3A322FAEF123B82E0D3
:203B80006C223400FB8A828B83E0FCA3E0FD888289832274F3120EF3E9FEECFFEA2462F509
:203BA00082EB123B656003023C2E9061D0E0F521EA24821236A7F5256004780480027800ED
:203BC0007480C39521FC95E0FDEF28F8E4123C3E2402F8E93400F9EC98ED99A2D265D03371
:203BE0004048740D120EDFE0F523A3E0F524E52560157823121106EFFCEEF912246F7402F9
:203C0000120EA974042FFF74012FF5D98ED97800800C8821E523123C37E524123125E8C306
:203C20009F40EF75E195790080067907800279FF0234AF882174212521F58222F8EF340035
:203C4000F9E82274F7120EF3A2AFE433F521C2AFEA2402F8EB3400F98A828B83E0FEA3E059
:203C6000FFEE4F600E88828983E0FAA3E0F5838A8280048A828B83123C83123C8DF0E52163
:203C8000023342ECF0A3EDF08882898322ECF0A3EDF08C828D83E4F0A32274F7120EF3EA9E
:203CA000FCEBFD7A007B00A2AFE433FEC2AF8C828D83123CE16022E8FAE9FB8A828B831293
:203CC000323A123CE7E4F0A3123CF5E849700A8C828D83A3A3E4F0A3F0EEA2E092AF02332D
:203CE00048123CFEE849228C828D83E8F0A3E9F08A828B8322F08C828D83123CFE22E0F8DB
:203D0000A3E0F922C082C0838003123D32E9F874FF28190470F4ECFAEDFB022DB1C082C0CF
:203D2000838003123D32E9F874FF28190470F4022DB18C828D83E08A828B83F08C828D83F9
:203D4000A3AC82AD838A828B83A3AA82AB8322C082C0839002E3EAF0A3EBF0D083D0820230
:203D60000B737F01020FC5C082C0838A828B83E064B07039A3E070358A828B83A3A3A3A365
:203D8000E0F87412687011EA241DF582EB3400F583E0640170178005741B6870107C017DE1
:203DA000008A828B83A3A3123F1A12216980AC74F7120EF3E99002E2F07A047B0012215128
:203DC000121F1D809D74F4120EF38A218B22EB548060309002E2E0F91228B98A238B24AE0C
:203DE00023AF24EE4F60138E828F83E064A07003121FC5EEFAEFFB1228A7AA21E522648045
:203E0000FB80047A007B007F04020FC574F5120EF374F5120E93EAFEEBFF7404120EDFAC48
:203E200082AD83121D1FE9F523EE2402F521EF3400F522E96003023EC77406120EDFE0A2CF
:203E4000E050299002E5E0F8A3E0F9E84960187404120EDF123F109002E6E0F583888212D1
:203E60000EF1E9F5238060752306805B9002E3E0F8A3E0F9E849601A7404120EDF123F109D
:203E80009002E4E0F5838882120EF1E9F523700580357523067405120EDFE0702A740612F2
:203EA0000EDFE0854082854183F07401120EDFE4F0A3F07403120EDFE523F085408285415F
:203EC00083123F10121CD18E828F83A3A3A3A3A3A3123F1AEA4B6003122907E523701D74BD
:203EE00006120EDFE0F8741268700C7405120EDFE064017007800F741B68600A7C017D005D
:203F0000123F14122169740B120EA97F03020FC5AC82AD83852182852283E0FAA3E0FB22D6
:203F200074F0120EF389218A258B268C228D237A1E7B001228A18A278B28AE27AF28EE4F67
:203F400060648E828F8374B0F0A3E522F08E828F83A3A3E525F0A3E526F08E828F83A3A365
:203F6000A3A3E523F0EE2405FAEF3400FB7410120EDFE0FCA3E0FDEC4D60157525197526F9
:203F800000782512110612287D7402120EA980097C197D007900122895EEFAEFFBA92112D4
:203FA00028AD7900800279137F08020FC574F7120EF3EAFEEBFFEE4F601A8E828F83E0F946
:203FC00074FF69600F74FE69600A12292B8E828F8374FFF0023D62C082C083E990074180FF
:203FE00008C082C083E9900742F0D083D082020B73C082C083E990074380EE020B73FFFF29
:204000008B62FFFF0500009442424242FFFFFFFFFFFFFFFFFFFFFFFFFFFFFFFFFFFFFFFF28
:20402000000102030405060708090A0BFFFFFFFF0243C802550CFFFFFFFFFFFFFFFFFFFFDC
:20404000FFFFFFFFFFFFFFFFFFFFFFFFFFFFFFFFFFFFFFFFFFFFFFFFFFFFFF025937FFFFEB
:20406000FFFFFF024F30FFFFFFFFFF02595DFFFFFFFFFF025911FFFFFFFFFFFFFFFFFFFFB2
:20408000FFFFFF025582FFFFFFFFFFFFFFFFFFFFFFFFFFFFFFFFFFFFFFFFFF024E38FFFFD9
:2040A000FFFFFFFFFFFFFFFFFFFFFF024EB9FFFFFFFFFF0253BB02B2870100007387029827
:2040C00087010000B68710A9850300008802029C8703000081020298870100007F861089E5
:2040E00085030000000002B2870100007F87029887010000B98710D9850200000000029C86
:2041000087030000C686029A870100000000029887010000B98710C985020000B887029C06
:2041200087030000C686029A87010000B8870000DF59D359009001000000A082E0817E81CF
:20414000F7831381FD82008059868C834E846E86418248830000030000010000000000000C
:20416000000030135C1F5CFF0000B4000028002800283075A000A000A000A00000080008C5
:20418000E001F00010001000100010001000100050005000500010001000D0070000000007
:2041A00000000F0001000500307507001000010081FF00000000FF575D755D5D5DFF02026B
:2041C0000208025000A0000000E80302B2870100007987029887010000000D029E87010065
:2041E00000B903029887010000010D02A087010000CF03029887010000020D02A28701007A
:2042000000D103029887010000030D02A487080000D203029887010000040D02A68701002B
:2042200000050DFF0100FF2002B2870100007C87029887010000690D02A887000000000045
:20424000029C870300001F04ED63ED63ED63ED63ED63ED63ED63ED63ED63ED63ED63ED6353
:20426000ED63116729670B67020202020202020202010D000000100102B287010000708710
:20428000029887010000AA0D028C870100009808029887010000AB0D028A87010000B0876A
:2042A000029887010000AC0D028887010000AE87029887010000AD0D0286870100001E854D
:2042C000029887010000AE0D028487010000AA87029887010000AF0D028287010000F8855B
:2042E000029887010000B00D029487010000B184029887010000B10D02AC870100003286BE
:20430000029887010000B20D02B487010000B30D01E803053F100AFFFF0008010100030267
:20432000010600000000000000000000000000000000000000000000000000000000FFFF78
:204340000110002000E803E5C754F84405F5C779012200000080FB124347B900030243B2DE
:20436000E479437815B800028004F709D8FCE479587802B800028004F709D8FCE4900280C7
:204380007879790A8002F0A3D8FCD9FA7AF87B0B9040B6789279038015E493A3AD82AE83DA
:2043A0008A828B83F0A3AA82AB838D828E83D8E9D9E775825F7583C274041243DA75825255
:2043C00075834374001243DA75D00075815F754180754202759F00024357C09FF59FE4737C
:2043E000D09F22D083D082C09FE493C0E0740193C0E0740293F59F22E066701008A3E066F3
:20440000700A08A3E066700408A3E06622E4936670130874019366700C087402936670056C
:20442000087403936622C3E7960809E7960809E7960809E796A2D265D03322C3E09608A316
:20444000E09608A3E09608A3E096A2D265D03322C021C3E096F52108A3E096422108A3E067
:2044600096422108A3E0964221A2D265D033E5217001D3D02122C3E7960809E7960809E7C0
:20448000960809E79622C3E09608A3E09608A3E09608A3E09622C021C3E096F52108A3E05D
:2044A00096422108A3E096422108A3E09645217001D3D02122C3E4939608740193960874AF
:2044C000029396087403939622080808EAC0E0EBC0E086F0E7A4FA180986F0E7A42AFA1861
:2044E0000986F0E7A42AFA180986F0E7A42AFA1986F0E7A4FBE5F02AFA190886F0E7A42BED
:20450000FBE5F03AFA190886F0E7A42BFBE5F03AFA18180986F0E7A4C5F02BFBE43AFA1900
:2045200008E7C5F0C6A426F6E5F03BFBE43AFA1886F0E7A4F6E5F00826F6E43B08F6E43AEB
:2045400008F6D0E0FBD0E0FA22E4CFC0E0E4CEC0E0E4CDC0E0E4CCC0E075F020E626F60811
:20456000E633F608E633F608E633F6181818EC33FCED33FDEE33FEEF33FFC3EC9709ED976B
:2045800009EE9709EF97191919400FFFEC97FC09ED97FD09EE97FE191906D5F0BFECF70928
:2045A000EDF709EEF709EFF7191919D0E0FCD0E0FDD0E0FED0E0FF22124620181818124500
:2045C0004912460F1919192212460F191919080808E618181820E7E0124549124620181897
:2045E0001822090909E719191920E7DC080808E618181820E703024549124620181818129F
:20460000454912462018181812460F19191922E4C397F709E497F709E497F709E497F722B0
:20462000E4C396F608E496F608E496F608E496F6226017080808C6A2E713C618C613C61837
:20464000C613C618C613C6D5E0E9226016080808C6C313C618C613C618C613C618C613C62F
:20466000D5E0EA227009080808226016181818C6C333C608C633C608C633C608C633C6D55C
:20468000E0EA22E627F60809E637F60809E637F60809E637F622E026F608A3E036F608A33F
:2046A000E036F608A3E036F622E026F008A3E036F008A3E036F008A3E036F022C3E697F6B4
:2046C0000809E697F60809E697F60809E697F622C3E096F008A3E096F008A3E096F008A336
:2046E000E096F022E056F608A3E056F608A3E056F608A3E056F622E056F008A3E056F00860
:20470000A3E056F008A3E056F022E647F60809E647F60809E647F60809E647F622E046F0E6
:2047200008A3E046F008A3E046F008A3E046F022E066F008A3E066F008A3E066F008A3E091
:2047400066F022E0F608A3E0F608A3E0F608A3E0F622E6F008A3E6F008A3E6F008A3E6F00D
:2047600022E0FAA3E0FBA3E0FCA3E0FD22EAF0A3EBF0A3ECF0A3EDF022E0FCA3E0FDA3E046
:20478000FEA3E0FF22ECF0A3EDF0A3EEF0A3EFF022E0F8A3E0F9A3E0FAA3E0FB22E8F0A30A
:2047A000E9F0A3EAF0A3EBF022CAC0E0E6F0A308DAFAD0E0FA22CAC0E0E0A3C582CCC58231
:2047C000C583CDC583F0A3C582CCC582C583CDC583DAE6D0E0CA22C3E498F8E499F91248CF
:2047E000188026C3E49AFAE49BFBE920E7E9124818E498F8E499F922C3E498F8E499F91230
:204800004818E498F8E499F9C3E49AFAE49BFB22EB20E7CFE920E7E0B90010BB0008E88AE8
:20482000F084F8AAF022E4FBC8FA22EB70227B10C833C8C933C9335007C39AC3DBF2800600
:204840009A50012ADBEAC833F4C8C933F4C9FA2275F008E4C833C8C933C933C99AC99B50CF
:2048600004C92AC93BD5F0ECFBC833F4C8E4C9FA22600D08C6A2E713C618C613C6D5E0F315
:2048800022600C08C6C313C618C613C6D5E0F422700422600D18C6C333C608C633C6D5E085
:2048A000F41822254110AF08F541400C15428008F54140021542D2AF2200C0D0254110AF15
:2048C00008F541500C05428008F54150020542D2AFD0D0222541F58210AF08F541400C1522
:2048E000428008F54140021542D2AF854283222541F582E43542F583222541F8E43542F9AE
:20490000222541FAE43542FB222541FCE43542FD22E4732541C582C0E0E54234FFC583C0BB
:20492000E0E541C3958224F810AF088583428582418008858342858241D2AFCEF0A3E52021
:20494000F0A37821E608F0A3DEFAEFF0A3E58124FAF8E608F0A3E608F0A3E608F0A3080841
:20496000E608F0A3E608F0A315811581D0E0FED0E0F8158115811581E8C0E0EEC0E0222594
:2049800041C582C0E0E54234FFC583C0E0E541C3958224F910AF088583428582418008852A
:2049A0008342858241D2AFCEF0A3E520F0A37821E608F0A3DEFAEFF0A3E58124FBF8E60891
:2049C000F0A3E608F0A30808E608F0A3E608F0A315811581D0E0FED0E0F815811581E8C05B
:2049E000E0EEC0E022854283854182E0A3FEE0A3F5207821E0A3F608DFFAE0A3FFE0A3C0C4
:204A0000E0E0A3C0E0E0A3C0E0E0A3C0E0E0A3C0E010AF088582418583428008858241857C
:204A20008342D2AFD083D0820243E0854283854182E0A3FEE0A3F5207821E0A3F608DFFAC8
:204A4000E0A3FFE0A3C0E0E0A3C0E0E0A3C0E0E0A3C0E010AF088582418583428008858260
:204A600041858342D2AFD083D08222C0D02541C582C0E0E54234FFC583C0E0E541C3958244
:204A800024F310AF088583428582418008858342858241D2AFC8F0A3E9F0A3EAF0A3EBF0DC
:204AA000A37921E709F0A3D8FAECF0A3EDF0A3EEF0A3EFF0A3D0E0F0A3D0E0F0A3D0E0F03C
:204AC000A3E520F0A3E5F0F0A322854283854182E0C0E0A3E0F9A3E0FAA3E0FBA37821E06C
:204AE000F608A3DFFAE0FCA3E0FDA3E0FEA3E0FFA3E0C0E0A3E0C0E0A3E0F5D0A3E0F520B7
:204B0000A3E0A3F5F010AF088583428582418008858342858241D2AFD082D083D0E0F8D079
:204B2000E03274048006740280027401C0E0F4041248D4D0E01247A922740480047402806C
:204B400000CCC0E0EDC0E0E541C39CCCAD4250011D10AF068C418D4280068C418D42D2AFAA
:204B60001247B6D0E0FDD0E0FC22D083D082C5F0E493A3C5F0C395F0F5F0E493A3C395F0F3
:204B80004005E5F0048001E475F002A42582F582E5F03583F583E493A3C0E0E493C0E02271
:204BA000D083D082E9C0E0E493A3C386F0C5F095F0F908E493A386F0C5F095F0700BE4937D
:204BC000A3C3994005E9048002A3E475F002A42582F582E5F03583F583D0E0F9E493A3C0EA
:204BE000E0E493C0E022D083D082E9C0E0E493A3C386F0C5F095F0F908E493A386F0C5F09B
:204C000095F0702408E493A386F0C5F095F0701908E493A386F0C5F095F0700E08E493A3AE
:204C2000C3994007E9048004A3A3A3E475F002A42582F582E5F03583F583D0E0F9E493A3A2
:204C4000C0E0E493C0E022D083D082CCC0E0E493A36006124C711470FAE493A36006124CBF
:204C6000901470FAD0E0FCE493A3C0E0E493C0E022C0E0E493A3D39C5010E493A3C39C4045
:204C80000AD0E0D0E0D0E0024C64A3A3A3D0E022C0E0E493A36C7009D0E0D0E0D0E0024C90
:204CA00064A3A3D0E022D083D082ECC0E0EDC0E0E493A3FCE493A3FDED4C600D124CF2ECAB
:204CC00024FFFCED34FFFD80EFE493A3FCE493A3FDED4C600D124D31EC24FFFCED34FFFD9E
:204CE00080EFD0E0FDD0E0FCE493A3C0E0E493C0E022C0E0C3E49396087401939618400F7C
:204D0000E49366700808740193661870007019A3A3C3E49396087401939618A3A3400DD080
:204D2000E0D0E0D0E0024CE2A3A3A3A3A3A3D0E022C0E0C0F088F0E4936670080874019332
:204D400066187000A8F0A3A3700BD0F0D0E0D0E0D0E0024CE2A3A3D0F0D0E022D083D0828F
:204D6000ECC0E0EDC0E0EEC0E0EFC0E0E493A3FCE493A3FDE493A3FEE493A3FFEF4E4D4CC9
:204D80006015124DD8EC24FFFCED34FFFDEE34FFFEEF34FFFF80E5E493A3FCE493A3FDE489
:204DA00093A3FEE493A3FFEF4E4D4C6015124E15EC24FFFCED34FFFDEE34FFFEEF34FFFF7E
:204DC00080E5D0E0FFD0E0FED0E0FDD0E0FCE493A3C0E0E493C0E022C0E0C0F088F01244A7
:204DE000B5A8F0400712440DA8F0701AA3A3A3A31244B5A8F0A3A3A3A34013D0F0D0E0D04C
:204E0000E0D0E0024DC2A3A3A3A3A3A3A3A3A3A3D0F0D0E022C0E0C0F088F012440DA8F03E
:204E2000A3A3A3A3700BD0F0D0E0D0E0D0E0024DC2A3A3D0F0D0E022C0E074EF124A6BA246
:204E4000AFE433FFD2AFA889E5AB58F5216060F4F589C2C59009837401F0FA900982E0F9B5
:204E6000126A8F7E008E2375240074027823124890124F2BC3E89408E99400502BE8540756
:204E8000F8E521B800028004C313D8FCA2E05018752300752401EE7823124890AA23AB2401
:204EA000900280E0F91269F90EEEC3940440B6EFA2E092AF7F04024ACAC0E074EF124A6B31
:204EC000A2AFE433FFD2AFA88AE58D58F5216059F4F58AC2EB7E008E237524007402782326
:204EE000124890124F2BE82400FAE934FFFBC3EA9408EB9400502BE85407F8E521B80002E1
:204F00008004C313D8FCA2E05018752300752401EE7823124890AA23AB24900280E0F9123B
:204F200069F90EEEC3940440AE8084124F97F922C0E074EF124A6BA2AFE433FFD2AFA88BCE
:204F4000E5AC58F521604DF4F58BC2E87E008E2375240074027823124890124F97C3940273
:204F6000402BE85407F8E521B800028004C313D8FCA2E05018752300752401EE782312489E
:204F800090AA23AB24900280E0F91269F90EEEC3940440BA024EAF740C2523F582740B3543
:204FA00024F583E0F8A3E02274F512497FEAFEEBFFEE2434F8EF3400F988218922EE2435CE
:204FC0001250D4F8EE24371250D4F523EC8523F0A4FCAAF08523F0EDA42AFDE82CF8E43DD1
:204FE000F97A257B00124818EA852182852283F074075AF87401B800028004C333D8FCFBBB
:20500000EA131313541FF8EE28F8EF3400F9E8245DF582E91250D75B6003EA801CEE24364A
:205020001250D4F5F0EA84A8F0EE28F8EF3400F9E82438F582E91250D7F97F04024A2B74E1
:20504000F512497FEAFEEBFFEE24341250D4C0E0EE2435F582EF3400F583D0E0F08E828FFB
:2050600083A3A3A3A3A3E0FAA3E0FB8E828F83A3A3A3A3A3A3A3E0FCA3E0FDECC39AF523D2
:20508000ED9BF524EE247FF521EF3400F522852182F583E06401702BEE2480F582EF3400E2
:2050A000F583124B3D1250DD74021248B9E960137CE27D05EEFAEFFB1263158521828522AF
:2050C00083E4F0AC23AD24EEFAEFFB124FA812590302503AF582EF3400F583E022C082C0EE
:2050E00083854182854283E0F8A3E0F9C3EA9CEB9D5010C3EC98ED99401BC3EA98EB9950D5
:2051000014800EC3EA98EB994007C3EC98ED994004790180027900D083D08222EAC39CFA4D
:20512000EB9DFB2274ED12497F9004A8E064086005E06407702C9061C8E060269004D6E052
:20514000F874FF68601CE875F003A4C8AAF02AF974D828FE740439FF8E828F83A3A3A3E07A
:20516000700579000252C4EE2468F529EF3400F52A906060E0852982852A83F0752362755E
:205180002406752100752200E5D914F527E5D95403F528601CEE2482F525EF3400F52674BC
:2051A0000365286058E5276013EE24671250D4700B793DEEFAEFFB12633980A690065DE0CF
:2051C00064016026852582852683E06004780480027800852721E521C398FA95E0FB1261C5
:2051E000838A218B22EA452270061265DF025162852582852683E070048A238B2478008000
:2052000016E5D9C0E0882BE523252BF582E5243400F583D0E0F008E8C3952740E485258284
:20522000852683E0602874FC2527F5277823124B26AC27A928EEFAEFFB1263E77402124840
:20524000B9E9700AAA21AB22126A2F0251B17403652860588527257526007825124B26ACF7
:2052600023AD24AA21AB221263AB74021248B9852982852A83E0F8748068700575257F8055
:20528000028825E525F5237823124B2AE528F5237823124B2AA927AC21AD229004D6E0FA24
:2052A0007B0012601B74021248B980139004A8E06408600BAC23AD24EEFAEFFB1264A1123C
:2052C00065EB79017F0C024A2B74F312497F74FC1248A3EAFEEBFF8921A2AFE433F522C297
:2052E000AFEE2463F523EF3400F5248010AA23AB24126363126A2F9005E9E004F08523820B
:20530000852483E0F8A3E0F9E849602FE82402FAE93400FBEA2402F525EB3400F52678252C
:20532000124B268A828B83E0FCA3E0F9EEFAEFFB12635774021248B9E960B29005E9E06098
:20534000579005EAE0F89005E9E0C398500C7402652170449005EBE0603E8E828F83A3A374
:20536000A3A3E08541828542831253A874021248EFE81253A89005E8E028F074021248EF80
:20538000AC82AD83854182854283AA82AB8379011260219005E9E4F0E522A2E092AF740422
:2053A0001248B97F06024A2BF0A3E4F09005E9E0F822FFFF8550878551C622C0E074EF12D2
:2053C0004A6BA2AFE433FEC2AF759B00906182E0A2E05012E591A2E0500C7591FE740165C8
:2053E000507003125124E0A2E55051E591A2E5504B7591DF9004A8E064076005E064087036
:205400002374016550703579019004D6E0FA75F003A4CAA8F028FB74D82AFA74043BFB121B
:2054200052C98018E0640D70139004CAE004F064287002E4F07A00E0F91265F1906182E0D3
:20544000A2E640030254E2E591A2E640030254E27591BF9004A8E0640570081264E312643F
:20546000EF80031264E9755000126567E99004A9F0790012654912626D7A017B009004A757
:20548000E0F91269F9907803E064427055900661E014F0704DC2AF12549A007859D0E0F6E9
:2054A00018D0E0F6E59F540770057522FF800375227FC4C0E07858E6F52108E65522F522FF
:2054C000740B7821124881D0E02521F8906270E0A2E740F8E8C333906272F0906270E0D2A2
:2054E000E0F0906181E0A2E35009E5E9A2E3500375E9F7A3E0A2E75009E591A2E750037585
:20550000917FEEA2E092AF7F04024ACAC0E0C0D0C082C083906183E0A2E05009E5BFA2E027
:20552000500375BFFEE0A2E15009E5BFA2E1500375BFFDE0A2E25009E5BFA2E2500375BF13
:20554000FBE0A2E35009E5BFA2E3500375BFF7E0A2E45009E5BFA2E4500375BFEFE0A2E525
:205560005009E5BFA2E5500375BFDFE0A2E65009E5BFA2E6500375BFBFD083D082D0D0D0F9
:20558000E032C0E074F2124A6BE5A7A2E4500FE5A1A2E4500953A7EF75A1EF1255D6E5A79F
:2055A000A2E5500CE5A1A2E5500653A7DF75A1DFE5A7A2E15009E5A1A2E1500375A1FDE51B
:2055C000A7A2E2500CE5A1A2E2500653A7FB75A1FB7F01024ACA74F812497F7550019004A8
:2055E000A8E0640670077A007B001264CBA2AFE433FED2AF9004AEE0640170187A207B0001
:205600009004A7E0F9126AB97A207B009004A7E0F91269FF906182E0D2E6F090065EE0606F
:205620002185C65180169004ADE064017008E5C654F84405F5C653BEFC1253B474016550CE
:2056400060E4EEA2E092AF7F01024A2B8E528F53858257858356854182854283E0CEA3E01D
:20566000CF855782855683EBC9EAC8EDCBECCA75F010C3E833C8E933C9EA33CAEB33CBC338
:20568000EA9EF555EB9FF554B35004AB54AA55EC33CCED33CDD5F0DAAE52AF532274F1124E
:2056A000497F8A218B228C238D249086F878211246E4740F1248EF78251247439086F878FC
:2056C000251246E4782179251244769087305010782179251246BC78211244964014800E0D
:2056E000782579211246BC782512449650047901800279007F08024A2B74ED12497F8A2129
:205700008B228C238D249086F878211246E474131248EF78251247439086F878251246E4A9
:20572000782579211244764011782179251246BCAA21AB22AC23AD248022752900752A00B3
:20574000752B00752C01782979251246BC78297921124683AA29AB2AAC2BAD2C7F0C024A6F
:205760002B9086F878211247438A828B8378211246F77F04024A2B74F512497F8C828D835E
:2057800078211247438A828B8378211246D01257CBC3E098F0A3E0991257BD401E908738AB
:2057A00078211247438A828B8378211246A98E828F83E02420F0A3E0344EF080A4F08E82B1
:2057C0008F83C3E09420A3E0944E22EA2404F8EB3400F9E8FEE9FF8C828D83A3A3A3A3E05F
:2057E000F8A3E0F98E828F832274F512497FE9FE9005FDE0FAA3E0FBEEC333F8E433F9747D
:205800005928F582748539F583E02AF521A3E03BF5227821124B2690874C12476112564C04
:2058200074021248B98A218B228C238D247410782112464BAA21AB227F04024A2B74F1125E
:20584000497F8A258B268C278D28740F1248EFE0FAA3E0FB74111248EFE0F521A3E0F52236
:205860007821124B26EA2401F521EB3400F522E4F523F524782579211244C990873C78215A
:20588000124743782579211244C9AA25AB26AC27AD2812564C74021248B98B22EA45226033
:2058A000047A0180027A00EC2AFCED3400FD74131248EFE0F8A3E0F9E8FEE9FFECF8EDF981
:2058C0007A717B0212481888218922E4F523F5248E828F837821124752ECF8EDF97A717BEF
:2058E000021248188A218B22740578211248908E828F83A3A3A3A3E521F0A3E522F07F081B
:20590000024A2BC082C083E9906000F0D083D08222C0E074F2124A6BA2AFE433FED2AFC285
:20592000C0E5D1A2E4500653D1EF12690FEEA2E092AF7F01024ACAC0E0C0D0E8C0E0E9C0D0
:20594000E0A9A8D2AFC2C7E9A2E7E433F8E9A2E792AFD0E0F9D0E0F8D0D0D0E032C0E0C0A5
:20596000D0E8C0E0E9C0E0EAC0E0C082C083A2AFE433FAD2AF900B06E0F8A3E06870085325
:205980009AFBA374018022C2E9900B06E0F8740128F0748628F582E4340AF583E0F5C190AE
:2059A0000B06E0C394804002E4F0EAA2E092AFD083D082D0E0FAD0E0F9D0E0F8D0D0D0E06C
:2059C00032C2AF020000221243E39C8A041243E3348B041243E30D8D041243E3628D041290
:2059E00043E3B88D041243E3CD8D041243E35A8E041243E3E28E041243E39B9C031243E328
:205A0000839D031243E3A99F031243E34FA0031243E3D0A0031243E361A2031243E326A3CC
:205A2000031243E340A3031243E3C5A3031243E360A4031243E342A5031243E378A50312D7
:205A400043E3ABA7031243E35FA8031243E3BBA8031243E343A9031243E30080011243E3D3
:205A60001C80011243E3FF81011243E3BA82011243E31683011243E36283011243E392831E
:205A8000011243E3DE84011243E36085011243E3D585011243E34E86011243E36387011277
:205AA00043E3E687011243E30B8A011243E3A391011243E3F191011243E32192011243E338
:205AC0008392011243E3AC92011243E38CB8011243E3FDB8011243E38BB9011243E312BD4A
:205AE000011243E3D3C2011243E303C3011243E302CA011243E3F2CA011243E33BCB01128D
:205B000043E35ECC011243E3ABCD011243E3EFCD011243E3A1CF011243E307FE011243E36F
:205B20001EFE011243E34FFE011243E38AFE011243E3B4FE011243E3DEFE011243E3F5FED6
:205B4000011243E30CFF011243E323FF011243E34CFF011243E35FFF011243E375FF0112CB
:205B600043E388FF011243E3AFFF011243E376B4031243E37AB5031243E3B2B5031243E3E7
:205B8000D5B5031243E3E0B5031243E303B6031243E312B7031243E3E7B7031243E362B885
:205BA000031243E3EAB8031243E325B9031243E35CB9031243E3EAB9031243E3C3BA0312F4
:205BC00043E323BB031243E32EBB031243E3ADBB031243E3B0BB031243E3B3BB031243E370
:205BE00042BC031243E345BC031243E375BC031243E39FBC031243E38DBD031243E33FBEAC
:205C0000031243E37AC8031243E372C9031243E3A6C9031243E328CA031243E370CA031230
:205C200043E3D4CA031243E361CB031243E31BCC031243E32ACF031243E3B5D0031243E3E8
:205C4000D8D0031243E36494041243E38C94041243E3BA94041243E3F194041243E34F95A2
:205C6000041243E39A95041243E3E595041243E32596041243E36B96041243E3999604124E
:205C800043E35697041243E36097041243E36D97041243E3A097041243E36C98041243E38F
:205CA0007898041243E39098041243E39A98041243E3D7BF041243E3E5BF041243E3FDBF58
:205CC000041243E315C0041243E310DC021243E3BCDC021243E337DD021243E358DE0212E7
:205CE00043E394DE021243E33DDF021243E324E0021243E388E1021243E3DFE1021243E3A1
:205D000060E2021243E350E3021243E39DE3021243E323E4021243E355E4021243E369E6DD
:205D2000021243E3ABE6021243E3C9E6021243E34CE7021243E320E8021243E3E8E80212E2
:205D400043E35FEB031243E332EC031243E3DBEC031243E32EED031243E3DEED031243E3E1
:205D60006AEE031243E356EF031243E385EF031243E398F0031243E3E0F0031243E3B5F1ED
:205D8000031243E3F1F1031243E30DF2031243E3AEC0041243E356A5041243E37CA5041259
:205DA00043E398A6041243E3A2A6041243E3D7A7041243E3CFA8041243E3D9A8041243E395
:205DC0007585041243E3A586041243E3D886041243E32287041243E3E988041243E3ACBB93
:205DE000021243E316BC021243E375BD021243E3FFBD021243E30FBE021243E33CBE0212E6
:205E000043E393BE021243E33CBF021243E343C0021243E30DC1021243E36DC2021243E3EE
:205E2000B0C2021243E355C3021243E3A2C3021243E3C8C3021243E3D6C5021243E3DBC58B
:205E4000021243E3E0C7021243E32DC8021243E3A0C8021243E3D3C8021243E375C902122F
:205E600043E31ECA021243E356CA021243E359CA021243E3A1CA021243E3E1CA021243E399
:205E800038CB021243E32EAF041243E346AF041243E38EAF041243E3A4AF041243E3EBAFD9
:205EA000041243E3FFB0041243E38CB1041243E3D7B1041243E37BD0011243E387D0011290
:205EC00043E3C2D0011243E307D1011243E3C7D1011243E356D2011243E3DCD2011243E3A7
:205EE00041D3011243E36DD3011243E3A6D3011243E3E4D5011243E3C8D7011243E3AED9D9
:205F0000011243E3F1DA011243E33FDD011243E351DE011243E39CDF011243E3ACE0011234
:205F200043E3C9E0011243E304E1011243E326E1011243E389E1011243E34AE6011243E3EF
:205F4000DFE6011243E330E7011243E357E7011243E3A9E7011243E3C7E7011243E321E8C3
:205F6000011243E30AE9011243E380EA011243E304EB011243E3D3F9021243E3DDF9021201
:205F800043E320FA021243E33BFA021243E3CBFA021243E3F3FA021243E330FB021243E38D
:205FA00067FB021243E390FB021243E305FC021243E31AFC021243E32FFC021243E351FC43
:205FC000021243E39AFC021243E3AFFC021243E3C3FC021243E3E8FC021243E322FD021288
:205FE00043E34EFD021243E37CFD021243E3C7FD021243E337FE021243E3A5FE021243E3F9
:20600000B0FE021243E3DBFE021243E324FF021243E34EFF021243E379FF021243E3D5FE1C
:20602000031243E306EB021243E354EC021243E334ED021243E353ED021243E3D0ED0212DA
:2060400043E313EE021243E369EF021243E319F0021243E352F2021243E3D9F4021243E385
:206060007AF5021243E370F6021243E36DF7021243E3C7F8021243E352F9021243E349BCB6
:20608000041243E3B2BC041243E306BD041243E32DBD041243E35EBD041243E321990412CE
:2060A00043E38E99041243E3D599041243E3ED9A041243E3E99B041243E3CC9C041243E386
:2060C0007CDB031243E3BEDB031243E390DC031243E369DD031243E363DE031243E345DF92
:2060E000031243E3AEDF031243E364E0031243E3D8E0031243E344E1031243E36DE1031268
:2061000043E3E7E1031243E380E2031243E3E5E2031243E3FAE2031243E340E3031243E342
:2061200059E3031243E3BEE3031243E3C1E3031243E335AC041243E35DAC041243E39BAC84
:20614000041243E359AD041243E3C0AD041243E3DCAD041243E304AE041243E334AE04126D
:2061600043E343AE041243E3C0AE041243E3E6AE041243E31295021243E3E396021243E3BE
:20618000F498021243E33099021243E35D99021243E3469A021243E38D9A021243E3CE9A23
:2061A000021243E3E09A021243E3209B021243E34D9B021243E3989B021243E3DF9B0212DF
:2061C00043E30D9C021243E35F9C021243E3EF9C021243E38C9F021243E3A7A1021243E3D5
:2061E000E5A1021243E35AA3021243E39FA3021243E383A4021243E38AA6021243E301A7B9
:20620000021243E34BA7021243E36CA7021243E30EA8021243E3F8A8021243E394A90212B0
:2062200043E3FDA9021243E303D2031243E382D2031243E344D8031243E353D9031243E3FB
:20624000BBDA031243E352DB031243E30080021243E34980021243E37680021243E3A980F0
:20626000021243E3B680021243E3C280021243E3D480021243E3BB81021243E31982021245
:2062800043E34E82021243E39183021243E3DE83021243E31484021243E38084021243E3D5
:2062A0002985021243E3D785021243E33586021243E3A586021243E30587021243E3708848
:2062C000021243E37D88021243E3C888021243E32589021243E3E489021243E3118A02127D
:2062E00043E3898A021243E3E58A021243E32F8B021243E3C58B021243E3908C021243E3AE
:20630000458D021243E3BA8D021243E3158E021243E3858E021243E3B08E021243E3528F6D
:20632000021243E36290021243E3A290021243E3BF90021243E3DE90021243E32591021290
:2063400043E34A91021243E38091021243E3FA91021243E33B92021243E35F93021243E3BF
:206360000694021243E35D94021243E3C794021243E3E094021243E3B0BE031243E303BF70
:20638000031243E30FBF031243E3E4BF031243E30BC0031243E346C0031243E3B2C003120D
:2063A00043E3EEC0031243E327C1031243E33FC1031243E394C1031243E3ADC1031243E337
:2063C000F6C1031243E309C2031243E323C2031243E339C2031243E36CC3031243E3B3C48E
:2063E000031243E3B5C5031243E3AFC6031243E3FB7F001243E39B8F041243E3319004120E
:2064000043E3E890041243E31291041243E30593041243E32D94041243E36BEB011243E363
:206420009FEB011243E389F4011243E3DDF5011243E3D6F6011243E356F8011243E338F91B
:20644000011243E372F9011243E395F9011243E3D7F9011243E3E0F9011243E32AFA011246
:2064600043E334FA011243E3DEFA011243E3B7FB011243E30BFC011243E36DFC011243E3B1
:20648000C0FC011243E3EFFC011243E32CFD011243E31FAA021243E386AD021243E38CADD8
:2064A000021243E30EB3021243E387B7021243E35DBB021243E3E3A8041243E359A90412FE
:2064C00043E36FA9041243E3B0A9041243E3EAA9041243E363AA041243E39EAA041243E311
:2064E00011AB041243E34FAB041243E358AB041243E364AB041243E380AB041243E3ABAB27
:20650000041243E3C1AB041243E305AC041243E382F2031243E395F2031243E3AFF2031283
:2065200043E3D8F2031243E31BF3031243E35AF3031243E398F3031243E3FDF3031243E36E
:2065400012F4031243E31DF4031243E32AF4031243E341F4031243E34FF4031243E35EF415
:20656000031243E373F4031243E388F4031243E393F4031243E39FF4031243E3B2F403123C
:2065800043E3BDF4031243E3E0F4031243E387F5031243E397F5031243E3ACF5031243E380
:2065A000C6F5031243E3E1F5031243E3FEF5031243E309F6031243E3C5F6031243E3B1F7CE
:2065C000031243E3D6F7031243E3E1F7031243E3F6F7031243E30AF8031243E36BF8031288
:2065E00043E371F8031243E377F8031243E37DF8031243E395F8031243E3C8F8031243E3B4
:20660000718E031243E3F58E031243E3A48F031243E30391031243E32493031243E31094AF
:20662000031243E34594031243E36794031243E31695031243E30E97031243E3379703122C
:2066400043E3C997031243E3FB97031243E30898031243E35F98031243E38598031243E347
:20666000F29A031243E3F59B031243E34D9C031243E30080031243E30A81031243E3F18171
:20668000031243E3FB81031243E31D82031243E32982031243E3C283031243E3F18303123F
:2066A00043E30D85031243E36685031243E3CC86031243E3AB87031243E30788031243E3FD
:2066C0007488031243E3AF88031243E3EE88031243E3A78B031243E3C18B031243E34D8C93
:2066E000031243E35B8C031243E3B48C031243E3C28C031243E3358D031243E3998D031201
:2067000043E3E38D031243E348A9031243E36AA9031243E390AB031243E3A5AE031243E32A
:20672000BDAF031243E370B0031243E352B1031243E306B9041243E32BB9041243E39DB9A8
:20674000041243E3E5E3031243E3EEE3031243E3F7E3031243E3CEE4031243E37FE6031272
:2067600043E3B5E6031243E3EFE6031243E325E7031243E35FE7031243E393E7031243E390
:20678000BFE7031243E308E8031243E342E8031243E38BE8031243E3E3E8031243E318E9D3
:2067A000031243E373E9031243E3ADE9031243E3FEE9031243E334EA031243E36EEA03124E
:2067C00043E39CEA031243E3BFEA031243E3D77F001243E3E17F001243E3F17F001243E320
:2067E00001B2041243E326B2041243E350B2041243E39BC1041243E3286B001243E30F6D79
:20680000001243E3156E001243E3CD6F001243E3CA70001243E35B71001243E3E071001238
:2068200043E30572001243E32775001243E39D75001243E38E76001243E3C876001243E3B3
:206840000877001243E3A078001243E3F578001243E34279001243E3B079001243E3D779E8
:20686000001243E3F179001243E3077B001243E3177B001243E34C7C001243E36E7C0012BE
:2068800043E3A47C001243E34A7E001243E3897E001243E3B27F001243E304C3041243E3CF
:2068A00032C1041243E342C1041243E34EC1041243E392C1041243E3D4BE041243E358BFAB
:2068C000041243E3BEBF041243E3A4A1041243E334A2041243E3AEA2041243E32EA30412BD
:2068E00043E3C0A3041243E34EA4041243E35CA4041243E36BA4041243E381A4041243E3BD
:2069000094A4041243E3F5A4041243E309A5041243E347A5041243E3C1FF011243E3D3FF51
